{
  "contractName": "Airdrop",
  "abi": [
    {
      "inputs": [
        {
          "internalType": "address",
          "name": "_tokenAddr",
          "type": "address"
        }
      ],
      "stateMutability": "nonpayable",
      "type": "constructor"
    },
    {
      "anonymous": false,
      "inputs": [
        {
          "indexed": false,
          "internalType": "address",
          "name": "beneficiary",
          "type": "address"
        },
        {
          "indexed": false,
          "internalType": "uint256",
          "name": "amount",
          "type": "uint256"
        }
      ],
      "name": "EtherTransfer",
      "type": "event"
    },
    {
      "anonymous": false,
      "inputs": [
        {
          "indexed": true,
          "internalType": "address",
          "name": "previousOwner",
          "type": "address"
        },
        {
          "indexed": true,
          "internalType": "address",
          "name": "newOwner",
          "type": "address"
        }
      ],
      "name": "OwnershipTransferred",
      "type": "event"
    },
    {
      "inputs": [],
      "name": "owner",
      "outputs": [
        {
          "internalType": "address",
          "name": "",
          "type": "address"
        }
      ],
      "stateMutability": "view",
      "type": "function",
      "constant": true
    },
    {
      "inputs": [],
      "name": "renounceOwnership",
      "outputs": [],
      "stateMutability": "nonpayable",
      "type": "function"
    },
    {
      "inputs": [],
      "name": "tokenAddr",
      "outputs": [
        {
          "internalType": "address",
          "name": "",
          "type": "address"
        }
      ],
      "stateMutability": "view",
      "type": "function",
      "constant": true
    },
    {
      "inputs": [
        {
          "internalType": "address",
          "name": "newOwner",
          "type": "address"
        }
      ],
      "name": "transferOwnership",
      "outputs": [],
      "stateMutability": "nonpayable",
      "type": "function"
    },
    {
      "inputs": [
        {
          "internalType": "address[]",
          "name": "_recipients",
          "type": "address[]"
        },
        {
          "internalType": "uint256[]",
          "name": "_amount",
          "type": "uint256[]"
        }
      ],
      "name": "dropTokens",
      "outputs": [
        {
          "internalType": "bool",
          "name": "",
          "type": "bool"
        }
      ],
      "stateMutability": "nonpayable",
      "type": "function"
    },
    {
      "inputs": [
        {
          "internalType": "address[]",
          "name": "_recipients",
          "type": "address[]"
        },
        {
          "internalType": "uint256[]",
          "name": "_amount",
          "type": "uint256[]"
        }
      ],
      "name": "dropEther",
      "outputs": [
        {
          "internalType": "bool",
          "name": "",
          "type": "bool"
        }
      ],
      "stateMutability": "payable",
      "type": "function",
      "payable": true
    },
    {
      "inputs": [
        {
          "internalType": "address",
          "name": "newTokenAddr",
          "type": "address"
        }
      ],
      "name": "updateTokenAddress",
      "outputs": [],
      "stateMutability": "nonpayable",
      "type": "function"
    },
    {
      "inputs": [
        {
          "internalType": "address",
          "name": "beneficiary",
          "type": "address"
        }
      ],
      "name": "withdrawTokens",
      "outputs": [],
      "stateMutability": "nonpayable",
      "type": "function"
    },
    {
      "inputs": [
        {
          "internalType": "address payable",
          "name": "beneficiary",
          "type": "address"
        }
      ],
      "name": "withdrawEther",
      "outputs": [],
      "stateMutability": "nonpayable",
      "type": "function"
    }
  ],
  "bytecode": "0x608060405234801561001057600080fd5b50604051610ae2380380610ae283398101604081905261002f916100ad565b6100383361005d565b600180546001600160a01b0319166001600160a01b03929092169190911790556100dd565b600080546001600160a01b038381166001600160a01b0319831681178455604051919092169283917f8be0079c531659141344cd1fd0a4f28419497f9722a3daafe3b4186f6b6457e09190a35050565b6000602082840312156100bf57600080fd5b81516001600160a01b03811681146100d657600080fd5b9392505050565b6109f6806100ec6000396000f3fe6080604052600436106100865760003560e01c80636691461a116100595780636691461a1461012d578063715018a61461014d5780638da5cb5b14610162578063af933b5714610180578063f2fde38b146101a057600080fd5b80633ff675141461008b57806349df728c146100b35780635422bdb5146100d55780635fbe4d1d146100f5575b600080fd5b61009e61009936600461084e565b6101c0565b60405190151581526020015b60405180910390f35b3480156100bf57600080fd5b506100d36100ce366004610910565b610381565b005b3480156100e157600080fd5b5061009e6100f036600461084e565b61047a565b34801561010157600080fd5b50600154610115906001600160a01b031681565b6040516001600160a01b0390911681526020016100aa565b34801561013957600080fd5b506100d3610148366004610910565b6105ac565b34801561015957600080fd5b506100d36105d6565b34801561016e57600080fd5b506000546001600160a01b0316610115565b34801561018c57600080fd5b506100d361019b366004610910565b6105ea565b3480156101ac57600080fd5b506100d36101bb366004610910565b61062b565b60006101ca6106a6565b6000805b8351811015610217576102038482815181106101ec576101ec61092d565b60200260200101518361070090919063ffffffff16565b91508061020f81610959565b9150506101ce565b503481111561022557600080fd5b825184511461023357600080fd5b60005b84518110156103745760006001600160a01b031685828151811061025c5761025c61092d565b60200260200101516001600160a01b03160361027757600080fd5b8481815181106102895761028961092d565b60200260200101516001600160a01b03166108fc8583815181106102af576102af61092d565b60200260200101519081150290604051600060405180830381858888f193505050501580156102e2573d6000803e3d6000fd5b507f1853ca9dc0208799379313b2b43364e45db022f073c72648fbc206dc0bacbcdc8582815181106103165761031661092d565b60200260200101518583815181106103305761033061092d565b602002602001015160405161035a9291906001600160a01b03929092168252602082015260400190565b60405180910390a18061036c81610959565b915050610236565b5060019150505b92915050565b6103896106a6565b6001546040516370a0823160e01b81523060048201526001600160a01b039091169063a9059cbb90839083906370a0823190602401602060405180830381865afa1580156103db573d6000803e3d6000fd5b505050506040513d601f19601f820116820180604052508101906103ff9190610972565b6040516001600160e01b031960e085901b1681526001600160a01b03909216600483015260248201526044016020604051808303816000875af115801561044a573d6000803e3d6000fd5b505050506040513d601f19601f8201168201806040525081019061046e919061098b565b61047757600080fd5b50565b60006104846106a6565b60005b83518110156105a25760006001600160a01b03168482815181106104ad576104ad61092d565b60200260200101516001600160a01b0316036104c857600080fd5b60015484516001600160a01b039091169063a9059cbb908690849081106104f1576104f161092d565b602002602001015185848151811061050b5761050b61092d565b60200260200101516040518363ffffffff1660e01b81526004016105449291906001600160a01b03929092168252602082015260400190565b6020604051808303816000875af1158015610563573d6000803e3d6000fd5b505050506040513d601f19601f82011682018060405250810190610587919061098b565b61059057600080fd5b8061059a81610959565b915050610487565b5060019392505050565b6105b46106a6565b600180546001600160a01b0319166001600160a01b0392909216919091179055565b6105de6106a6565b6105e86000610713565b565b6105f26106a6565b6040516001600160a01b038216904780156108fc02916000818181858888f19350505050158015610627573d6000803e3d6000fd5b5050565b6106336106a6565b6001600160a01b03811661069d5760405162461bcd60e51b815260206004820152602660248201527f4f776e61626c653a206e6577206f776e657220697320746865207a65726f206160448201526564647265737360d01b60648201526084015b60405180910390fd5b61047781610713565b6000546001600160a01b031633146105e85760405162461bcd60e51b815260206004820181905260248201527f4f776e61626c653a2063616c6c6572206973206e6f7420746865206f776e65726044820152606401610694565b600061070c82846109ad565b9392505050565b600080546001600160a01b038381166001600160a01b0319831681178455604051919092169283917f8be0079c531659141344cd1fd0a4f28419497f9722a3daafe3b4186f6b6457e09190a35050565b634e487b7160e01b600052604160045260246000fd5b604051601f8201601f1916810167ffffffffffffffff811182821017156107a2576107a2610763565b604052919050565b600067ffffffffffffffff8211156107c4576107c4610763565b5060051b60200190565b6001600160a01b038116811461047757600080fd5b600082601f8301126107f457600080fd5b81356020610809610804836107aa565b610779565b82815260059290921b8401810191818101908684111561082857600080fd5b8286015b84811015610843578035835291830191830161082c565b509695505050505050565b6000806040838503121561086157600080fd5b823567ffffffffffffffff8082111561087957600080fd5b818501915085601f83011261088d57600080fd5b8135602061089d610804836107aa565b82815260059290921b840181019181810190898411156108bc57600080fd5b948201945b838610156108e35785356108d4816107ce565b825294820194908201906108c1565b965050860135925050808211156108f957600080fd5b50610906858286016107e3565b9150509250929050565b60006020828403121561092257600080fd5b813561070c816107ce565b634e487b7160e01b600052603260045260246000fd5b634e487b7160e01b600052601160045260246000fd5b60006001820161096b5761096b610943565b5060010190565b60006020828403121561098457600080fd5b5051919050565b60006020828403121561099d57600080fd5b8151801515811461070c57600080fd5b8082018082111561037b5761037b61094356fea2646970667358221220b696b01b1265b977469d1bedb4a3847c7c3d74cf9dfc5383078e39d5d6b3225364736f6c63430008130033",
  "immutableReferences": {},
  "source": "// SPDX-License-Identifier: MIT\r\npragma solidity ^0.8.0;\r\n\r\nimport \"@openzeppelin/contracts/access/Ownable.sol\";\r\nimport \"@openzeppelin/contracts/utils/math/SafeMath.sol\";\r\nimport \"./Token.sol\";\r\n\r\ncontract Airdrop is Ownable {\r\n    using SafeMath for uint;\r\n\r\n    address public tokenAddr;\r\n\r\n    event EtherTransfer(address beneficiary, uint amount);\r\n\r\n    constructor(address _tokenAddr) {\r\n        tokenAddr = _tokenAddr;\r\n    }\r\n\r\n    function dropTokens(address[] memory _recipients, uint256[] memory _amount) public onlyOwner returns (bool) {\r\n       \r\n        for (uint i = 0; i < _recipients.length; i++) {\r\n            require(_recipients[i] != address(0));\r\n            require(Token(tokenAddr).transfer(_recipients[i], _amount[i]));\r\n        }\r\n\r\n        return true;\r\n    }\r\n\r\n    function dropEther(address[] memory _recipients, uint256[] memory _amount) public payable onlyOwner returns (bool) {\r\n        uint total = 0;\r\n\r\n        for(uint j = 0; j < _amount.length; j++) {\r\n            total = total.add(_amount[j]);\r\n        }\r\n\r\n        require(total <= msg.value);\r\n        require(_recipients.length == _amount.length);\r\n\r\n\r\n        for (uint i = 0; i < _recipients.length; i++) {\r\n            require(_recipients[i] != address(0));\r\n\r\n            payable(_recipients[i]).transfer(_amount[i]);\r\n\r\n            emit EtherTransfer(_recipients[i], _amount[i]);\r\n        }\r\n\r\n        return true;\r\n    }\r\n\r\n    function updateTokenAddress(address newTokenAddr) public onlyOwner {\r\n        tokenAddr = newTokenAddr;\r\n    }\r\n\r\n    function withdrawTokens(address beneficiary) public onlyOwner {\r\n        require(Token(tokenAddr).transfer(beneficiary, Token(tokenAddr).balanceOf(address(this))));\r\n    }\r\n\r\n    function withdrawEther(address payable beneficiary) public onlyOwner {\r\n        beneficiary.transfer(address(this).balance);\r\n    }\r\n}",
  "sourcePath": "D:\\works\\2022\\blockchain\\token-airdrop-contract\\contracts\\Airdrop.sol",
  "compiler": {
    "name": "solc",
    "version": "0.8.19+commit.7dd6d404.Emscripten.clang"
  },
  "schemaVersion": "3.4.12",
  "updatedAt": "2023-03-01T16:40:41.122Z",
  "networkType": "ethereum",
  "devdoc": {
    "kind": "dev",
    "methods": {
      "owner()": {
        "details": "Returns the address of the current owner."
      },
      "renounceOwnership()": {
        "details": "Leaves the contract without owner. It will not be possible to call `onlyOwner` functions anymore. Can only be called by the current owner. NOTE: Renouncing ownership will leave the contract without an owner, thereby removing any functionality that is only available to the owner."
      },
      "transferOwnership(address)": {
        "details": "Transfers ownership of the contract to a new account (`newOwner`). Can only be called by the current owner."
      }
    },
    "version": 1
  },
  "userdoc": {
    "kind": "user",
    "methods": {},
    "version": 1
  }
}